{
  "contractName": "Authentication",
  "abi": [
    {
      "constant": false,
      "inputs": [],
      "name": "kill",
      "outputs": [],
      "payable": false,
      "stateMutability": "nonpayable",
      "type": "function"
    },
    {
      "constant": false,
      "inputs": [
        {
          "name": "name",
          "type": "bytes32"
        }
      ],
      "name": "signup",
      "outputs": [
        {
          "name": "",
          "type": "bytes32"
        }
      ],
      "payable": true,
      "stateMutability": "payable",
      "type": "function"
    },
    {
      "constant": true,
      "inputs": [
        {
          "name": "addr",
          "type": "address"
        }
      ],
      "name": "getUser",
      "outputs": [
        {
          "name": "",
          "type": "bytes32"
        }
      ],
      "payable": false,
      "stateMutability": "view",
      "type": "function"
    },
    {
      "constant": false,
      "inputs": [
        {
          "name": "name",
          "type": "bytes32"
        }
      ],
      "name": "update",
      "outputs": [
        {
          "name": "",
          "type": "bytes32"
        }
      ],
      "payable": true,
      "stateMutability": "payable",
      "type": "function"
    },
    {
      "constant": true,
      "inputs": [],
      "name": "owner",
      "outputs": [
        {
          "name": "",
          "type": "address"
        }
      ],
      "payable": false,
      "stateMutability": "view",
      "type": "function"
    },
    {
      "constant": true,
      "inputs": [],
      "name": "login",
      "outputs": [
        {
          "name": "",
          "type": "bytes32"
        }
      ],
      "payable": false,
      "stateMutability": "view",
      "type": "function"
    },
    {
      "constant": false,
      "inputs": [
        {
          "name": "newOwner",
          "type": "address"
        }
      ],
      "name": "transferOwnership",
      "outputs": [],
      "payable": false,
      "stateMutability": "nonpayable",
      "type": "function"
    }
  ],
  "bytecode": "0x6060604052336000806101000a81548173ffffffffffffffffffffffffffffffffffffffff021916908373ffffffffffffffffffffffffffffffffffffffff16021790555061078a806100536000396000f300606060405260043610610083576000357c0100000000000000000000000000000000000000000000000000000000900463ffffffff16806341c0e1b5146100885780635c1397de1461009d5780636f77926b146100d55780638b1472451461012a5780638da5cb5b14610162578063b34e97e8146101b7578063f2fde38b146101e8575b600080fd5b341561009357600080fd5b61009b610221565b005b6100b76004808035600019169060200190919050506102b2565b60405180826000191660001916815260200191505060405180910390f35b34156100e057600080fd5b61010c600480803573ffffffffffffffffffffffffffffffffffffffff169060200190919050506103f8565b60405180826000191660001916815260200191505060405180910390f35b610144600480803560001916906020019091905050610477565b60405180826000191660001916815260200191505060405180910390f35b341561016d57600080fd5b6101756105cd565b604051808273ffffffffffffffffffffffffffffffffffffffff1673ffffffffffffffffffffffffffffffffffffffff16815260200191505060405180910390f35b34156101c257600080fd5b6101ca6105f2565b60405180826000191660001916815260200191505060405180910390f35b34156101f357600080fd5b61021f600480803573ffffffffffffffffffffffffffffffffffffffff1690602001909190505061068e565b005b6000809054906101000a900473ffffffffffffffffffffffffffffffffffffffff1673ffffffffffffffffffffffffffffffffffffffff163373ffffffffffffffffffffffffffffffffffffffff1614156102b0576000809054906101000a900473ffffffffffffffffffffffffffffffffffffffff1673ffffffffffffffffffffffffffffffffffffffff16ff5b565b6000808260006001028160001916141515156102cd57600080fd5b600160003373ffffffffffffffffffffffffffffffffffffffff1673ffffffffffffffffffffffffffffffffffffffff1681526020019081526020016000205491506000600102826000191614156103ae5783600160003373ffffffffffffffffffffffffffffffffffffffff1673ffffffffffffffffffffffffffffffffffffffff1681526020019081526020016000208160001916905550600160003373ffffffffffffffffffffffffffffffffffffffff1673ffffffffffffffffffffffffffffffffffffffff1681526020019081526020016000205492506103f1565b600160003373ffffffffffffffffffffffffffffffffffffffff1673ffffffffffffffffffffffffffffffffffffffff1681526020019081526020016000205492505b5050919050565b600080600102600160003373ffffffffffffffffffffffffffffffffffffffff1673ffffffffffffffffffffffffffffffffffffffff16815260200190815260200160002054600019161415151561044f57600080fd5b7f68656c6c6f0000000000000000000000000000000000000000000000000000009050919050565b600081600060010281600019161415151561049157600080fd5b6000600102600160003373ffffffffffffffffffffffffffffffffffffffff1673ffffffffffffffffffffffffffffffffffffffff1681526020019081526020016000205460001916141515156104e757600080fd5b6000600102600160003373ffffffffffffffffffffffffffffffffffffffff1673ffffffffffffffffffffffffffffffffffffffff16815260200190815260200160002054600019161415156105c65782600160003373ffffffffffffffffffffffffffffffffffffffff1673ffffffffffffffffffffffffffffffffffffffff1681526020019081526020016000208160001916905550600160003373ffffffffffffffffffffffffffffffffffffffff1673ffffffffffffffffffffffffffffffffffffffff1681526020019081526020016000205491506105c7565b5b50919050565b6000809054906101000a900473ffffffffffffffffffffffffffffffffffffffff1681565b600080600102600160003373ffffffffffffffffffffffffffffffffffffffff1673ffffffffffffffffffffffffffffffffffffffff16815260200190815260200160002054600019161415151561064957600080fd5b600160003373ffffffffffffffffffffffffffffffffffffffff1673ffffffffffffffffffffffffffffffffffffffff16815260200190815260200160002054905090565b6000809054906101000a900473ffffffffffffffffffffffffffffffffffffffff1673ffffffffffffffffffffffffffffffffffffffff163373ffffffffffffffffffffffffffffffffffffffff16141561075b57600073ffffffffffffffffffffffffffffffffffffffff168173ffffffffffffffffffffffffffffffffffffffff1614151561075a57806000806101000a81548173ffffffffffffffffffffffffffffffffffffffff021916908373ffffffffffffffffffffffffffffffffffffffff1602179055505b5b505600a165627a7a723058209a08d3d5af82a387998c3c4c942872976a96dbd67dc14fcae7c3840a780f1eeb0029",
  "source": "pragma solidity ^0.4.18;\r\n\r\nimport './zeppelin/lifecycle/Killable.sol';\r\n\r\ncontract Authentication is Killable {\r\n\r\n\r\n    struct UserAccount {\r\n        address addr;\r\n        bytes32 name;\r\n     } \r\n   \r\n    mapping (address => bytes32) internal users;\r\n\r\n  uint private id; // Stores user id temporarily\r\n\r\n  modifier onlyExistingUser {\r\n    // Check if user exists or terminate\r\n\r\n    require(!(users[msg.sender] == 0x0));\r\n    _;\r\n  }\r\n\r\n  modifier onlyValidName(bytes32 name) {\r\n    // Only valid names allowed\r\n\r\n    require(!(name == 0x0));\r\n    _;\r\n  }\r\n\r\n  function login() constant\r\n  onlyExistingUser\r\n  returns (bytes32) {\r\n    return (users[msg.sender]);\r\n  }\r\n\r\n  function getUser(address addr) constant\r\n  onlyExistingUser\r\n  returns (bytes32) {\r\n    return (\"hello\");\r\n  }\r\n\r\n  function signup(bytes32 name)\r\n   payable\r\n  onlyValidName(name)\r\n  returns (bytes32) {\r\n    // Check if user exists.\r\n    // If yes, return user name.\r\n    // If no, check if name was sent.\r\n    // If yes, create and return user.\r\n   bytes32 lName = users[msg.sender];\r\n    if (lName == 0x0)\r\n    {\r\n\r\n       // user.addr = msg.sender;\r\n        //user.name = name;\r\n        users[msg.sender] = name;\r\n\r\n        return (users[msg.sender]);\r\n    }\r\n\r\n    return (users[msg.sender]);\r\n  }\r\n\r\n  function update(bytes32 name)\r\n  payable\r\n  onlyValidName(name)\r\n  onlyExistingUser\r\n  returns (bytes32) {\r\n    // Update user name.\r\n\r\n    if (users[msg.sender] != 0x0)\r\n    {\r\n        users[msg.sender] = name;\r\n\r\n        return (users[msg.sender]);\r\n    }\r\n  }\r\n}\r\n",
  "sourcePath": "C:\\codes\\ethereum\\sergiy\\DjangoReactWebpack\\assets\\contracts\\Authentication.sol",
  "compiler": {
    "name": "solc",
    "version": "0.4.18+commit.9cf6e910.Emscripten.clang"
  },
  "schemaVersion": "1.0.1",
  "updatedAt": "2018-06-01T10:00:10.233Z"
}