{
  "contractName": "MobilityRegistry",
  "abi": [
    {
      "constant": true,
      "inputs": [],
      "name": "getCarInfo",
      "outputs": [
        {
          "name": "",
          "type": "bytes16"
        },
        {
          "name": "",
          "type": "bytes16"
        },
        {
          "name": "",
          "type": "uint8"
        }
      ],
      "payable": false,
      "stateMutability": "view",
      "type": "function"
    },
    {
      "constant": false,
      "inputs": [
        {
          "name": "brand",
          "type": "bytes16"
        },
        {
          "name": "model",
          "type": "bytes16"
        },
        {
          "name": "color",
          "type": "uint8"
        }
      ],
      "name": "addCar",
      "outputs": [
        {
          "name": "error",
          "type": "uint256"
        }
      ],
      "payable": true,
      "stateMutability": "payable",
      "type": "function"
    },
    {
      "constant": false,
      "inputs": [],
      "name": "deleteCar",
      "outputs": [
        {
          "name": "error",
          "type": "uint256"
        }
      ],
      "payable": true,
      "stateMutability": "payable",
      "type": "function"
    },
    {
      "inputs": [],
      "payable": false,
      "stateMutability": "nonpayable",
      "type": "constructor"
    },
    {
      "anonymous": false,
      "inputs": [
        {
          "indexed": true,
          "name": "account",
          "type": "address"
        },
        {
          "indexed": true,
          "name": "name",
          "type": "bytes32"
        }
      ],
      "name": "UserRegistered",
      "type": "event"
    },
    {
      "anonymous": false,
      "inputs": [
        {
          "indexed": false,
          "name": "userAccount",
          "type": "address"
        },
        {
          "indexed": false,
          "name": "carAccount",
          "type": "uint256"
        }
      ],
      "name": "CarListed",
      "type": "event"
    }
  ],
  "bytecode": "0x6060604052341561000f57600080fd5b60006001819055506104df806100266000396000f300606060405260043610610057576000357c0100000000000000000000000000000000000000000000000000000000900463ffffffff168063183771821461005c578063218ff195146100e5578063bcce66c91461014c575b600080fd5b341561006757600080fd5b61006f61016a565b60405180846fffffffffffffffffffffffffffffffff19166fffffffffffffffffffffffffffffffff19168152602001836fffffffffffffffffffffffffffffffff19166fffffffffffffffffffffffffffffffff191681526020018260ff1660ff168152602001935050505060405180910390f35b61013660048080356fffffffffffffffffffffffffffffffff19169060200190919080356fffffffffffffffffffffffffffffffff191690602001909190803560ff16906020019091905050610242565b6040518082815260200191505060405180910390f35b61015461037f565b6040518082815260200191505060405180910390f35b60008060008060003391506000808373ffffffffffffffffffffffffffffffffffffffff1673ffffffffffffffffffffffffffffffffffffffff16815260200190815260200160002090508060010160019054906101000a900460ff161561022d578060000160009054906101000a9004700100000000000000000000000000000000028160000160109054906101000a9004700100000000000000000000000000000000028260010160009054906101000a900460ff1694509450945061023b565b600080906000909450945094505b5050909192565b60008060003391506000808373ffffffffffffffffffffffffffffffffffffffff1673ffffffffffffffffffffffffffffffffffffffff16815260200190815260200160002090508060010160019054906101000a900460ff16156102ab576103e89250610376565b60018160010160016101000a81548160ff021916908315150217905550858160000160006101000a8154816fffffffffffffffffffffffffffffffff021916908370010000000000000000000000000000000090040217905550848160000160106101000a8154816fffffffffffffffffffffffffffffffff021916908370010000000000000000000000000000000090040217905550838160010160006101000a81548160ff021916908360ff160217905550600160008154809291906001019190505550600192505b50509392505050565b60008060003391506000808373ffffffffffffffffffffffffffffffffffffffff1673ffffffffffffffffffffffffffffffffffffffff16815260200190815260200160002090508060010160019054906101000a900460ff16156104a9576000808373ffffffffffffffffffffffffffffffffffffffff1673ffffffffffffffffffffffffffffffffffffffff168152602001908152602001600020600080820160006101000a8154906fffffffffffffffffffffffffffffffff02191690556000820160106101000a8154906fffffffffffffffffffffffffffffffff02191690556001820160006101000a81549060ff02191690556001820160016101000a81549060ff0219169055505060016000815480929190600190039190505550600192506104ae565b600092505b5050905600a165627a7a7230582097e5edaf8b634e3db6e0199631495e29cdc2875fe2c9235402cd1a0573f2563e0029",
  "source": "pragma solidity ^0.4.18;\r\n\r\nimport \"./CarTypes.sol\";\r\nimport \"./ErrorTypes.sol\";\r\n\r\ncontract MobilityRegistry is CarTypes, ErrorTypes {\r\n\r\n    mapping (address => Car)  cars;\r\n\r\n    uint countCars;\r\n\r\n    address  internal owner ;\r\n\r\n    //Authentication auth;\r\n    function MobilityRegistry () {\r\n        countCars = 0;\r\n      }\r\n\r\n    event UserRegistered(address indexed account, bytes32 indexed name);\r\n    event CarListed(address userAccount, uint carAccount);\r\n    \r\n   function getCarInfo( ) public constant returns(bytes16,bytes16 , uint8) {\r\n        address cid = msg.sender; //countCars;\r\n        Car car = cars[cid];\r\n        if (car.exists) {\r\n            return (car.brand, car.model,car.color);\r\n        } else{\r\n            return ('', '',uint8(0));\r\n        }\r\n        \r\n    }\r\n\r\n\r\n\r\n/*\r\n   function getName(uint cid) public constant returns(bytes32,address) {\r\n        Authentication.UserAccount user = auth.users[msg.sender];\r\n        return (auth.users[msg.sender].name,msg.sender);\r\n    }\r\n*/\r\n\r\n\r\n    /// Register a car.\r\n    function addCar(bytes16 brand , bytes16 model, uint8 color) payable returns(uint error) {\r\n\r\n        address cid = msg.sender; //countCars;\r\n        Car car = cars[cid];\r\n        if (car.exists) {\r\n            return CAR_ALREADY_REGISTERED;\r\n        }\r\n\r\n        car.exists = true;\r\n        car.brand = brand;\r\n        car.model = model;\r\n        car.color = color;\r\n      //  user.cars.push(cid);\r\n      //  CarListed(msg.sender, cid);\r\n\r\n        countCars++;\r\n        return SUCCESS;\r\n    }\r\n\r\n    /// delete a car.\r\n    function deleteCar () payable returns(uint error) {\r\n\r\n        address cid = msg.sender; //countCars;\r\n        Car car = cars[cid];\r\n        if (car.exists) {\r\n            delete cars[cid];\r\n            countCars--;\r\n            return SUCCESS;\r\n        }\r\n        return ERROR;\r\n    }\r\n\r\n/*\r\n    /// Register as user. \r\n    function registerUser(bytes32 name, bytes16 license) payable returns (uint error) {\r\n        Authentication.UserAccount user = auth.users[msg.sender];\r\n        if (user.exists) {\r\n            return ACCOUNT_ALREADY_EXIST;\r\n        }\r\n\r\n        user.addr = msg.sender;\r\n        user.name = name;\r\n        user.license = license;\r\n        user.exists = true;\r\n        auth.users[msg.sender] = user;\r\n\r\n        UserRegistered(user.addr, name);\r\n        return SUCCESS;\r\n    }\r\n\r\n*/\r\n}",
  "sourcePath": "C:\\codes\\ethereum\\sergiy\\DjangoReactWebpack\\assets\\contracts\\cars\\MobilityRegistry.sol",
  "compiler": {
    "name": "solc",
    "version": "0.4.18+commit.9cf6e910.Emscripten.clang"
  },
  "schemaVersion": "1.0.1",
  "updatedAt": "2018-05-17T20:00:26.929Z"
}