{
  "contractName": "PhoneNumberDatabase",
  "abi": [
    {
      "constant": false,
      "inputs": [
        {
          "name": "phoneNumber",
          "type": "bytes32"
        },
        {
          "name": "operator",
          "type": "address"
        }
      ],
      "name": "checkPhoneNumber",
      "outputs": [
        {
          "name": "isAssociated",
          "type": "bool"
        }
      ],
      "payable": false,
      "stateMutability": "nonpayable",
      "type": "function"
    },
    {
      "constant": false,
      "inputs": [
        {
          "name": "phoneNumber",
          "type": "bytes32"
        },
        {
          "name": "operator",
          "type": "address"
        }
      ],
      "name": "registerPhoneNumber",
      "outputs": [],
      "payable": false,
      "stateMutability": "nonpayable",
      "type": "function"
    },
    {
      "constant": true,
      "inputs": [],
      "name": "owner",
      "outputs": [
        {
          "name": "",
          "type": "address"
        }
      ],
      "payable": false,
      "stateMutability": "view",
      "type": "function"
    },
    {
      "constant": false,
      "inputs": [
        {
          "name": "newOwner",
          "type": "address"
        }
      ],
      "name": "transferOwnership",
      "outputs": [],
      "payable": false,
      "stateMutability": "nonpayable",
      "type": "function"
    },
    {
      "inputs": [],
      "payable": false,
      "stateMutability": "nonpayable",
      "type": "constructor"
    }
  ],
  "bytecode": "0x6060604052341561000f57600080fd5b336000806101000a81548173ffffffffffffffffffffffffffffffffffffffff021916908373ffffffffffffffffffffffffffffffffffffffff1602179055506106288061005e6000396000f300606060405260043610610062576000357c0100000000000000000000000000000000000000000000000000000000900463ffffffff1680631c34a6771461006757806345d197ea146100c55780638da5cb5b1461010b578063f2fde38b14610160575b600080fd5b341561007257600080fd5b6100ab60048080356000191690602001909190803573ffffffffffffffffffffffffffffffffffffffff16906020019091905050610199565b604051808215151515815260200191505060405180910390f35b34156100d057600080fd5b61010960048080356000191690602001909190803573ffffffffffffffffffffffffffffffffffffffff1690602001909190505061023b565b005b341561011657600080fd5b61011e610448565b604051808273ffffffffffffffffffffffffffffffffffffffff1673ffffffffffffffffffffffffffffffffffffffff16815260200191505060405180910390f35b341561016b57600080fd5b610197600480803573ffffffffffffffffffffffffffffffffffffffff1690602001909190505061046d565b005b60008060006101a8858561053d565b91506001600083600019166000191681526020019081526020016000209050846000191681600101546000191614801561023157508373ffffffffffffffffffffffffffffffffffffffff168160020160009054906101000a900473ffffffffffffffffffffffffffffffffffffffff1673ffffffffffffffffffffffffffffffffffffffff16145b9250505092915050565b60008060008061024b868661053d565b9350600160008560001916600019168152602001908152602001600020925060008360020160009054906101000a900473ffffffffffffffffffffffffffffffffffffffff1673ffffffffffffffffffffffffffffffffffffffff1614156104405785836001018160001916905550848360020160006101000a81548173ffffffffffffffffffffffffffffffffffffffff021916908373ffffffffffffffffffffffffffffffffffffffff1602179055506002600087600019166000191681526020019081526020016000209150858260000181600019169055506001826001018181805490500191508161034191906105ab565b508382600101600184600101805490500381548110151561035e57fe5b90600052602060002090018160001916905550600360008673ffffffffffffffffffffffffffffffffffffffff1673ffffffffffffffffffffffffffffffffffffffff1681526020019081526020016000209050848160000160006101000a81548173ffffffffffffffffffffffffffffffffffffffff021916908373ffffffffffffffffffffffffffffffffffffffff1602179055506001816001018181805490500191508161040f91906105ab565b508381600101600183600101805490500381548110151561042c57fe5b906000526020600020900181600019169055505b505050505050565b6000809054906101000a900473ffffffffffffffffffffffffffffffffffffffff1681565b6000809054906101000a900473ffffffffffffffffffffffffffffffffffffffff1673ffffffffffffffffffffffffffffffffffffffff163373ffffffffffffffffffffffffffffffffffffffff16141561053a57600073ffffffffffffffffffffffffffffffffffffffff168173ffffffffffffffffffffffffffffffffffffffff1614151561053957806000806101000a81548173ffffffffffffffffffffffffffffffffffffffff021916908373ffffffffffffffffffffffffffffffffffffffff1602179055505b5b50565b600082826040518083600019166000191681526020018273ffffffffffffffffffffffffffffffffffffffff1673ffffffffffffffffffffffffffffffffffffffff166c01000000000000000000000000028152601401925050506040518091039020905080905092915050565b8154818355818115116105d2578183600052602060002091820191016105d191906105d7565b5b505050565b6105f991905b808211156105f55760008160009055506001016105dd565b5090565b905600a165627a7a72305820a8e24dbcc53eea297e4efa8083c35ccc0bee8c45e7fe1b9ff706c2b268ecb58b0029",
  "source": "pragma solidity ^0.4.4;\r\n\r\nimport \"../zeppelin/ownership/Ownable.sol\";\r\n\r\n\r\ncontract PhoneNumberDatabase is Ownable {\r\n        struct Record {\r\n                bytes32 key;\r\n                bytes32 phoneNumber;\r\n                address operator;\r\n        }\r\n        mapping (bytes32 => Record) records;\r\n\r\n        struct PhoneRecord {\r\n                bytes32 phoneNumber;\r\n                bytes32[] records;\r\n        }\r\n        mapping (bytes32 => PhoneRecord) phoneRecords;\r\n\r\n        struct OperatorRecord {\r\n                address operator;\r\n                bytes32[] records;\r\n        }\r\n        mapping (address => OperatorRecord) operatorRecords;\r\n\r\n        function PhoneNumberDatabase() {\r\n        }\r\n\r\n        function generateRecordKey(bytes32 phoneNumber, address operator) internal returns (bytes32 key){\r\n                key = keccak256(phoneNumber, operator);\r\n                return key;\r\n        }\r\n\r\n        function registerPhoneNumber(bytes32 phoneNumber, address operator) public {\r\n                /*\r\n                 * Stores an association between a phone number and an address.\r\n                 */\r\n                bytes32 recordKey = generateRecordKey(phoneNumber, operator);\r\n                var record = records[recordKey];\r\n                // TODO: Only need to do this if they are unset.\r\n                if (record.operator == 0x0) {\r\n                        record.phoneNumber = phoneNumber;\r\n                        record.operator = operator;\r\n\r\n                        var phoneRecord = phoneRecords[phoneNumber];\r\n                        phoneRecord.phoneNumber = phoneNumber;\r\n                        phoneRecord.records.length += 1;\r\n                        phoneRecord.records[phoneRecord.records.length - 1] = recordKey;\r\n\r\n                        var operatorRecord = operatorRecords[operator];\r\n                        operatorRecord.operator = operator;\r\n                        operatorRecord.records.length += 1;\r\n                        operatorRecord.records[operatorRecord.records.length - 1] = recordKey;\r\n                }\r\n        }\r\n\r\n        function checkPhoneNumber(bytes32 phoneNumber, address operator) public returns (bool isAssociated) {\r\n                bytes32 recordKey = generateRecordKey(phoneNumber, operator);\r\n                var record = records[recordKey];\r\n                return (record.phoneNumber == phoneNumber && record.operator == operator);\r\n\r\n        }\r\n}",
  "sourcePath": "C:\\codes\\ethereum\\sergiy\\DjangoReactWebpack\\assets\\contracts\\phone-number\\PhoneNumberDatabase.sol",
  "compiler": {
    "name": "solc",
    "version": "0.4.18+commit.9cf6e910.Emscripten.clang"
  },
  "schemaVersion": "1.0.1",
  "updatedAt": "2018-05-17T20:00:26.929Z"
}