{
  "contractName": "Relay",
  "abi": [
    {
      "constant": true,
      "inputs": [
        {
          "name": "consume",
          "type": "bool"
        }
      ],
      "name": "owner",
      "outputs": [
        {
          "name": "",
          "type": "address"
        }
      ],
      "payable": false,
      "stateMutability": "view",
      "type": "function"
    },
    {
      "constant": false,
      "inputs": [
        {
          "name": "consume",
          "type": "bool"
        }
      ],
      "name": "getLatestSecret",
      "outputs": [
        {
          "name": "secret",
          "type": "bytes32"
        }
      ],
      "payable": false,
      "stateMutability": "nonpayable",
      "type": "function"
    },
    {
      "constant": false,
      "inputs": [
        {
          "name": "secretHash",
          "type": "bytes32"
        }
      ],
      "name": "addSecret",
      "outputs": [],
      "payable": false,
      "stateMutability": "nonpayable",
      "type": "function"
    },
    {
      "constant": false,
      "inputs": [],
      "name": "getNumSecrets",
      "outputs": [
        {
          "name": "",
          "type": "uint256"
        }
      ],
      "payable": false,
      "stateMutability": "nonpayable",
      "type": "function"
    },
    {
      "constant": false,
      "inputs": [
        {
          "name": "newOwner",
          "type": "address"
        }
      ],
      "name": "transferOwnership",
      "outputs": [],
      "payable": false,
      "stateMutability": "nonpayable",
      "type": "function"
    },
    {
      "inputs": [],
      "payable": false,
      "stateMutability": "nonpayable",
      "type": "constructor"
    }
  ],
  "bytecode": "0x60606040526000600355341561001457600080fd5b336000806101000a81548173ffffffffffffffffffffffffffffffffffffffff021916908373ffffffffffffffffffffffffffffffffffffffff16021790555033600160006101000a81548173ffffffffffffffffffffffffffffffffffffffff021916908373ffffffffffffffffffffffffffffffffffffffff1602179055506103b6806100a46000396000f30060606040526004361061006d576000357c0100000000000000000000000000000000000000000000000000000000900463ffffffff1680638da5cb5b146100725780639324f934146100c7578063adf6911814610108578063dcdd397d1461012f578063f2fde38b14610158575b600080fd5b341561007d57600080fd5b610085610191565b604051808273ffffffffffffffffffffffffffffffffffffffff1673ffffffffffffffffffffffffffffffffffffffff16815260200191505060405180910390f35b34156100d257600080fd5b6100ea600480803515159060200190919050506101b6565b60405180826000191660001916815260200191505060405180910390f35b341561011357600080fd5b61012d600480803560001916906020019091905050610211565b005b341561013a57600080fd5b610142610258565b6040518082815260200191505060405180910390f35b341561016357600080fd5b61018f600480803573ffffffffffffffffffffffffffffffffffffffff16906020019091905050610269565b005b6000809054906101000a900473ffffffffffffffffffffffffffffffffffffffff1681565b60006002805490506003541015156101d1576000905061020c565b60026003548154811015156101e257fe5b906000526020600020900154905081156102085760016003600082825401925050819055505b8090505b919050565b60016002818180549050019150816102299190610339565b5080600260016002805490500381548110151561024257fe5b9060005260206000209001816000191690555050565b600060035460028054905003905090565b6000809054906101000a900473ffffffffffffffffffffffffffffffffffffffff1673ffffffffffffffffffffffffffffffffffffffff163373ffffffffffffffffffffffffffffffffffffffff16141561033657600073ffffffffffffffffffffffffffffffffffffffff168173ffffffffffffffffffffffffffffffffffffffff1614151561033557806000806101000a81548173ffffffffffffffffffffffffffffffffffffffff021916908373ffffffffffffffffffffffffffffffffffffffff1602179055505b5b50565b8154818355818115116103605781836000526020600020918201910161035f9190610365565b5b505050565b61038791905b8082111561038357600081600090555060010161036b565b5090565b905600a165627a7a72305820536d3df98116a73ceebad3ae01c0439240ed75a9d1b635b88966f259160508e00029",
  "source": "pragma solidity ^0.4.4;\r\n\r\nimport \"../zeppelin/ownership/Ownable.sol\";\r\n\r\n\r\ncontract Relay is Ownable {\r\n        address operator;\r\n\r\n        bytes32[] secrets;\r\n        uint secretIndex = 0;\r\n\r\n        mapping (bytes32 => bytes32) hashes;\r\n\r\n        modifier onlyoperator { if (msg.sender == operator) { _; }}\r\n\r\n        function Relay() {\r\n                operator = msg.sender;\r\n        }\r\n\r\n        function addSecret(bytes32 secretHash) {\r\n            secrets.length += 1;\r\n            secrets[secrets.length - 1] = secretHash;\r\n        }\r\n\r\n        function getNumSecrets() returns (uint) {\r\n            return secrets.length - secretIndex;\r\n        }\r\n\r\n        function getLatestSecret(bool consume) returns (bytes32 secret) {\r\n            if (secretIndex >= secrets.length) {\r\n                return \"\";\r\n            }\r\n            secret = secrets[secretIndex];\r\n            if (consume) {\r\n                secretIndex += 1;\r\n            }\r\n            return secret;\r\n        }\r\n}",
  "sourcePath": "C:\\codes\\ethereum\\sergiy\\DjangoReactWebpack\\assets\\contracts\\phone-number\\Relay.sol",
  "compiler": {
    "name": "solc",
    "version": "0.4.18+commit.9cf6e910.Emscripten.clang"
  },
  "schemaVersion": "1.0.1",
  "updatedAt": "2018-05-17T20:11:40.146Z"
}