{
  "contractName": "RideSharing",
  "abi": [
    {
      "constant": false,
      "inputs": [
        {
          "name": "rsvtId",
          "type": "uint256"
        },
        {
          "name": "addr",
          "type": "address"
        },
        {
          "name": "ratio",
          "type": "uint256"
        },
        {
          "name": "complementratio",
          "type": "uint256"
        }
      ],
      "name": "resolveLitige",
      "outputs": [
        {
          "name": "",
          "type": "uint256"
        }
      ],
      "payable": true,
      "stateMutability": "payable",
      "type": "function"
    },
    {
      "constant": false,
      "inputs": [
        {
          "name": "rsvtId",
          "type": "uint256"
        },
        {
          "name": "price",
          "type": "uint256"
        }
      ],
      "name": "requestFundsReserver",
      "outputs": [
        {
          "name": "",
          "type": "uint256"
        }
      ],
      "payable": true,
      "stateMutability": "payable",
      "type": "function"
    },
    {
      "constant": false,
      "inputs": [],
      "name": "kill",
      "outputs": [],
      "payable": false,
      "stateMutability": "nonpayable",
      "type": "function"
    },
    {
      "constant": false,
      "inputs": [
        {
          "name": "id",
          "type": "uint256"
        },
        {
          "name": "startdate",
          "type": "uint256"
        },
        {
          "name": "prices",
          "type": "uint256[]"
        }
      ],
      "name": "addRide",
      "outputs": [
        {
          "name": "",
          "type": "uint256"
        }
      ],
      "payable": true,
      "stateMutability": "payable",
      "type": "function"
    },
    {
      "constant": true,
      "inputs": [],
      "name": "owner",
      "outputs": [
        {
          "name": "",
          "type": "address"
        }
      ],
      "payable": false,
      "stateMutability": "view",
      "type": "function"
    },
    {
      "constant": false,
      "inputs": [
        {
          "name": "rsvtId",
          "type": "uint256"
        }
      ],
      "name": "requestFundsOwner",
      "outputs": [
        {
          "name": "",
          "type": "uint8"
        }
      ],
      "payable": true,
      "stateMutability": "payable",
      "type": "function"
    },
    {
      "constant": false,
      "inputs": [
        {
          "name": "newRatio",
          "type": "uint256"
        }
      ],
      "name": "setRatio",
      "outputs": [
        {
          "name": "",
          "type": "bool"
        }
      ],
      "payable": true,
      "stateMutability": "payable",
      "type": "function"
    },
    {
      "constant": false,
      "inputs": [
        {
          "name": "sum",
          "type": "uint256"
        }
      ],
      "name": "getEarns",
      "outputs": [
        {
          "name": "",
          "type": "bool"
        }
      ],
      "payable": false,
      "stateMutability": "nonpayable",
      "type": "function"
    },
    {
      "constant": false,
      "inputs": [
        {
          "name": "rsvtId",
          "type": "uint256"
        }
      ],
      "name": "setProofLitigeAsReserver",
      "outputs": [
        {
          "name": "",
          "type": "uint8"
        }
      ],
      "payable": true,
      "stateMutability": "payable",
      "type": "function"
    },
    {
      "constant": false,
      "inputs": [
        {
          "name": "newaddr",
          "type": "address"
        }
      ],
      "name": "setNewAddressForFunds",
      "outputs": [
        {
          "name": "",
          "type": "bool"
        }
      ],
      "payable": false,
      "stateMutability": "nonpayable",
      "type": "function"
    },
    {
      "constant": false,
      "inputs": [
        {
          "name": "newOwner",
          "type": "address"
        }
      ],
      "name": "transferOwnership",
      "outputs": [],
      "payable": false,
      "stateMutability": "nonpayable",
      "type": "function"
    },
    {
      "constant": false,
      "inputs": [
        {
          "name": "rsvtId",
          "type": "uint256"
        },
        {
          "name": "startdate",
          "type": "uint256"
        }
      ],
      "name": "updateRideDate",
      "outputs": [
        {
          "name": "",
          "type": "uint256"
        }
      ],
      "payable": true,
      "stateMutability": "payable",
      "type": "function"
    },
    {
      "constant": false,
      "inputs": [
        {
          "name": "rsvtId",
          "type": "uint256"
        },
        {
          "name": "nbPlaces",
          "type": "uint8"
        },
        {
          "name": "idx",
          "type": "uint256"
        },
        {
          "name": "idy",
          "type": "uint256"
        }
      ],
      "name": "reserveRide",
      "outputs": [
        {
          "name": "",
          "type": "uint256"
        }
      ],
      "payable": true,
      "stateMutability": "payable",
      "type": "function"
    },
    {
      "inputs": [],
      "payable": false,
      "stateMutability": "nonpayable",
      "type": "constructor"
    },
    {
      "anonymous": false,
      "inputs": [
        {
          "indexed": true,
          "name": "userCID",
          "type": "address"
        },
        {
          "indexed": false,
          "name": "rideId",
          "type": "uint256"
        }
      ],
      "name": "RidePublished",
      "type": "event"
    },
    {
      "anonymous": false,
      "inputs": [
        {
          "indexed": true,
          "name": "userCID",
          "type": "address"
        },
        {
          "indexed": false,
          "name": "rideId",
          "type": "uint256"
        }
      ],
      "name": "RideReserved",
      "type": "event"
    },
    {
      "anonymous": false,
      "inputs": [
        {
          "indexed": true,
          "name": "userCID",
          "type": "address"
        },
        {
          "indexed": false,
          "name": "nb",
          "type": "uint256"
        }
      ],
      "name": "ResNotFound",
      "type": "event"
    },
    {
      "anonymous": false,
      "inputs": [
        {
          "indexed": true,
          "name": "userCID",
          "type": "address"
        },
        {
          "indexed": false,
          "name": "id",
          "type": "uint256"
        },
        {
          "indexed": false,
          "name": "sum",
          "type": "uint256"
        },
        {
          "indexed": false,
          "name": "nbRsvt",
          "type": "uint256"
        }
      ],
      "name": "FundtoOnwerInfos",
      "type": "event"
    },
    {
      "anonymous": false,
      "inputs": [
        {
          "indexed": true,
          "name": "userCID",
          "type": "address"
        },
        {
          "indexed": false,
          "name": "",
          "type": "uint256"
        },
        {
          "indexed": false,
          "name": "",
          "type": "uint256"
        },
        {
          "indexed": false,
          "name": "",
          "type": "uint256"
        },
        {
          "indexed": false,
          "name": "",
          "type": "uint256"
        }
      ],
      "name": "LitigeResolved",
      "type": "event"
    },
    {
      "anonymous": false,
      "inputs": [
        {
          "indexed": true,
          "name": "userCID",
          "type": "address"
        },
        {
          "indexed": false,
          "name": "rideId",
          "type": "uint256"
        },
        {
          "indexed": false,
          "name": "status",
          "type": "uint256"
        }
      ],
      "name": "FundtoReserverInfos",
      "type": "event"
    },
    {
      "anonymous": false,
      "inputs": [
        {
          "indexed": true,
          "name": "userCID",
          "type": "address"
        },
        {
          "indexed": false,
          "name": "rideId",
          "type": "uint256"
        }
      ],
      "name": "RideDateupdated",
      "type": "event"
    },
    {
      "anonymous": false,
      "inputs": [
        {
          "indexed": true,
          "name": "userCID",
          "type": "address"
        },
        {
          "indexed": false,
          "name": "rideId",
          "type": "uint256"
        },
        {
          "indexed": false,
          "name": "resId",
          "type": "uint256"
        }
      ],
      "name": "LitigeRequested",
      "type": "event"
    }
  ],
  "bytecode": "0x606060405261012c600155610708600255341561001b57600080fd5b336000806101000a81548173ffffffffffffffffffffffffffffffffffffffff021916908373ffffffffffffffffffffffffffffffffffffffff16021790555033600660006101000a81548173ffffffffffffffffffffffffffffffffffffffff021916908373ffffffffffffffffffffffffffffffffffffffff1602179055506064600481905550611af6806100b36000396000f3006060604052600436106100c5576000357c0100000000000000000000000000000000000000000000000000000000900463ffffffff16806302bf0ba0146100ca57806331baaf4e1461012757806341c0e1b51461015c57806385c60aa4146101715780638da5cb5b146101e6578063b014db1b1461023b578063b2237ba31461026d578063b6657b811461029d578063d9a8f937146102d8578063e5049a091461030a578063f2fde38b1461035b578063fd36bfa914610394578063fdda8fa7146103c9575b600080fd5b610111600480803590602001909190803573ffffffffffffffffffffffffffffffffffffffff16906020019091908035906020019091908035906020019091905050610413565b6040518082815260200191505060405180910390f35b610146600480803590602001909190803590602001909190505061083d565b6040518082815260200191505060405180910390f35b341561016757600080fd5b61016f610c0b565b005b6101d0600480803590602001909190803590602001909190803590602001908201803590602001908080602002602001604051908101604052809392919081815260200183836020028082843782019150505050505091905050610c9c565b6040518082815260200191505060405180910390f35b34156101f157600080fd5b6101f9610db9565b604051808273ffffffffffffffffffffffffffffffffffffffff1673ffffffffffffffffffffffffffffffffffffffff16815260200191505060405180910390f35b6102516004808035906020019091905050610dde565b604051808260ff1660ff16815260200191505060405180910390f35b610283600480803590602001909190505061108d565b604051808215151515815260200191505060405180910390f35b34156102a857600080fd5b6102be60048080359060200190919050506110f5565b604051808215151515815260200191505060405180910390f35b6102ee60048080359060200190919050506111b8565b604051808260ff1660ff16815260200191505060405180910390f35b341561031557600080fd5b610341600480803573ffffffffffffffffffffffffffffffffffffffff169060200190919050506113b9565b604051808215151515815260200191505060405180910390f35b341561036657600080fd5b610392600480803573ffffffffffffffffffffffffffffffffffffffff1690602001909190505061145b565b005b6103b3600480803590602001909190803590602001909190505061152b565b6040518082815260200191505060405180910390f35b6103fd600480803590602001909190803560ff16906020019091908035906020019091908035906020019091905050611633565b6040518082815260200191505060405180910390f35b6000806000806000806000806000809054906101000a900473ffffffffffffffffffffffffffffffffffffffff1673ffffffffffffffffffffffffffffffffffffffff163373ffffffffffffffffffffffffffffffffffffffff16141561082e57600560008d815260200190815260200160002096506000955060009450600093505b86600301805490508460ff161015610581578a73ffffffffffffffffffffffffffffffffffffffff16876003018560ff168154811015156104d357fe5b906000526020600020906004020160000160009054906101000a900473ffffffffffffffffffffffffffffffffffffffff1673ffffffffffffffffffffffffffffffffffffffff161480156105605750600460ff16876003018560ff1681548110151561053c57fe5b906000526020600020906004020160000160149054906101000a900460ff1660ff16145b1561057457600195508360ff169450610581565b8380600101945050610496565b60001515861515141561063157866003018460ff168154811015156105a257fe5b906000526020600020906004020160000160009054906101000a900473ffffffffffffffffffffffffffffffffffffffff1673ffffffffffffffffffffffffffffffffffffffff167ffc7237c076b911b6e5bb958176145ea855055662e7864b55c1182359d56605c688600301805490506040518082815260200191505060405180910390a26000975061082d565b866003018581548110151561064257fe5b906000526020600020906004020192506003876003018681548110151561066557fe5b906000526020600020906004020160000160146101000a81548160ff021916908360ff16021790555060648a8460030154028115156106a057fe5b0491506064898460030154028115156106b557fe5b04905086600301858154811015156106c957fe5b906000526020600020906004020160000160009054906101000a900473ffffffffffffffffffffffffffffffffffffffff1673ffffffffffffffffffffffffffffffffffffffff166108fc829081150290604051600060405180830381858888f19350505050151561073a57600080fd5b8660000160009054906101000a900473ffffffffffffffffffffffffffffffffffffffff1673ffffffffffffffffffffffffffffffffffffffff166108fc839081150290604051600060405180830381858888f19350505050151561079e57600080fd5b8660000160009054906101000a900473ffffffffffffffffffffffffffffffffffffffff1673ffffffffffffffffffffffffffffffffffffffff167f53d944a0f3578435d6b5c244c7603ea3c8869a9f393a430ffb856b02993f59218d8785856040518085815260200184815260200183815260200182815260200194505050505060405180910390a2600197505b5b50505050505050949350505050565b6000806000806000806005600089815260200190815260200160002094506000935060009250600091505b84600301805490508260ff161015610953573373ffffffffffffffffffffffffffffffffffffffff16856003018360ff168154811015156108a557fe5b906000526020600020906004020160000160009054906101000a900473ffffffffffffffffffffffffffffffffffffffff1673ffffffffffffffffffffffffffffffffffffffff161480156109325750600160ff16856003018360ff1681548110151561090e57fe5b906000526020600020906004020160000160149054906101000a900460ff1660ff16145b1561094657600193508160ff169250610953565b8180600101925050610868565b6000151584151514156109c0573373ffffffffffffffffffffffffffffffffffffffff167f060ba3372885359565be259a2f8024116313b588b6d0c80933ee11d6888ddfa3896000604051808381526020018281526020019250505060405180910390a260009550610c00565b84600301838154811015156109d157fe5b90600052602060002090600402019050846002015462015180420110806109ff5750612a3081600101540142105b15610ac65760028160000160146101000a81548160ff021916908360ff1602179055503373ffffffffffffffffffffffffffffffffffffffff166108fc82600301549081150290604051600060405180830381858888f193505050501515610a6657600080fd5b3373ffffffffffffffffffffffffffffffffffffffff167f060ba3372885359565be259a2f8024116313b588b6d0c80933ee11d6888ddfa3896001604051808381526020018281526020019250505060405180910390a260019550610c00565b846002015461546042011015610ba45760028160000160146101000a81548160ff021916908360ff1602179055503373ffffffffffffffffffffffffffffffffffffffff166108fc60028360030154811515610b1e57fe5b049081150290604051600060405180830381858888f193505050501515610b4457600080fd5b3373ffffffffffffffffffffffffffffffffffffffff167f060ba3372885359565be259a2f8024116313b588b6d0c80933ee11d6888ddfa3896002604051808381526020018281526020019250505060405180910390a260029550610c00565b3373ffffffffffffffffffffffffffffffffffffffff167f060ba3372885359565be259a2f8024116313b588b6d0c80933ee11d6888ddfa3896003604051808381526020018281526020019250505060405180910390a2600395505b505050505092915050565b6000809054906101000a900473ffffffffffffffffffffffffffffffffffffffff1673ffffffffffffffffffffffffffffffffffffffff163373ffffffffffffffffffffffffffffffffffffffff161415610c9a576000809054906101000a900473ffffffffffffffffffffffffffffffffffffffff1673ffffffffffffffffffffffffffffffffffffffff16ff5b565b6000806000600560008781526020019081526020016000209150338260000160006101000a81548173ffffffffffffffffffffffffffffffffffffffff021916908373ffffffffffffffffffffffffffffffffffffffff160217905550600090505b8351811015610d5657816001018054806001018281610d1d9190611984565b916000526020600020900160008684815181101515610d3857fe5b90602001906020020151909190915055508080600101915050610cfe565b8482600201819055503373ffffffffffffffffffffffffffffffffffffffff167fbaeb3319cdc86c3b361e685e6c4a39126fb394cf1f4ab09480da86d2f1e63f4f876040518082815260200191505060405180910390a285925050509392505050565b6000809054906101000a900473ffffffffffffffffffffffffffffffffffffffff1681565b6000806000806000809350600192506005600087815260200190815260200160002091508160000160009054906101000a900473ffffffffffffffffffffffffffffffffffffffff1673ffffffffffffffffffffffffffffffffffffffff163373ffffffffffffffffffffffffffffffffffffffff16141515610e645760009450611084565b600582600201540142101515610f3957600090505b8160030180549050811015610f3857600160ff168260030182815481101515610e9e57fe5b906000526020600020906004020160000160149054906101000a900460ff1660ff161415610f26578160030181815481101515610ed757fe5b90600052602060002090600402016003015484019350600360ff168260030182815481101515610f0357fe5b906000526020600020906004020160000160149054906101000a90505050610f2b565b600092505b8080600101915050610e79565b5b600084111561107f573373ffffffffffffffffffffffffffffffffffffffff166108fc859081150290604051600060405180830381858888f193505050501515610f8257600080fd5b8160000160009054906101000a900473ffffffffffffffffffffffffffffffffffffffff1673ffffffffffffffffffffffffffffffffffffffff167f16b364a912dcaa4a39f0684f6e334ab34710456ef903886ea0cd87556c4d5fb88786856003018054905060405180848152602001838152602001828152602001935050505060405180910390a260011515831515141561107e5760056000878152602001908152602001600020600080820160006101000a81549073ffffffffffffffffffffffffffffffffffffffff021916905560018201600061106391906119b0565b600282016000905560038201600061107b91906119d1565b50505b5b600194505b50505050919050565b60008060009054906101000a900473ffffffffffffffffffffffffffffffffffffffff1673ffffffffffffffffffffffffffffffffffffffff163373ffffffffffffffffffffffffffffffffffffffff1614156110f05781600481905550600190505b919050565b60008060009054906101000a900473ffffffffffffffffffffffffffffffffffffffff1673ffffffffffffffffffffffffffffffffffffffff163373ffffffffffffffffffffffffffffffffffffffff1614156111b357600660009054906101000a900473ffffffffffffffffffffffffffffffffffffffff1673ffffffffffffffffffffffffffffffffffffffff166108fc839081150290604051600060405180830381858888f1935050505015156111ae57600080fd5b600190505b919050565b6000806000806000600560008781526020019081526020016000209350600092506000915060015484600201540142101580156111fc575060025484600201540142105b156113ab57600090505b83600301805490508160ff1610156112ad573373ffffffffffffffffffffffffffffffffffffffff16846003018260ff1681548110151561124357fe5b906000526020600020906004020160000160009054906101000a900473ffffffffffffffffffffffffffffffffffffffff1673ffffffffffffffffffffffffffffffffffffffff1614156112a057600192508060ff1691506112ad565b8080600101915050611206565b600015158315151415611318573373ffffffffffffffffffffffffffffffffffffffff167ffc7237c076b911b6e5bb958176145ea855055662e7864b55c1182359d56605c685600301805490506040518082815260200191505060405180910390a2600094506113b0565b6004846003018381548110151561132b57fe5b906000526020600020906004020160000160146101000a81548160ff021916908360ff1602179055503373ffffffffffffffffffffffffffffffffffffffff167f37edf5b46f79b284a002f1bfffeb57aca51d0d23895abe3bf9f3090be98587178784604051808381526020018281526020019250505060405180910390a25b600194505b50505050919050565b60008060009054906101000a900473ffffffffffffffffffffffffffffffffffffffff1673ffffffffffffffffffffffffffffffffffffffff163373ffffffffffffffffffffffffffffffffffffffff1614156114565781600660006101000a81548173ffffffffffffffffffffffffffffffffffffffff021916908373ffffffffffffffffffffffffffffffffffffffff160217905550600190505b919050565b6000809054906101000a900473ffffffffffffffffffffffffffffffffffffffff1673ffffffffffffffffffffffffffffffffffffffff163373ffffffffffffffffffffffffffffffffffffffff16141561152857600073ffffffffffffffffffffffffffffffffffffffff168173ffffffffffffffffffffffffffffffffffffffff1614151561152757806000806101000a81548173ffffffffffffffffffffffffffffffffffffffff021916908373ffffffffffffffffffffffffffffffffffffffff1602179055505b5b50565b6000806005600085815260200190815260200160002090508060000160009054906101000a900473ffffffffffffffffffffffffffffffffffffffff1673ffffffffffffffffffffffffffffffffffffffff163373ffffffffffffffffffffffffffffffffffffffff161415156115a5576000915061162c565b60008160030180549050141561162b578281600201819055503373ffffffffffffffffffffffffffffffffffffffff167f3bb330b6d4dfcf0da73a1bf3b420681e5ad5e9a31387c445e15a3311013a908d60056000878152602001908152602001600020600201546040518082815260200191505060405180910390a26001915061162c565b5b5092915050565b60008060008060056000898152602001908152602001600020925082600101600081548110151561166057fe5b906000526020600020900154915060018360010180549050111561168c57611689888787611900565b91505b6064600454830281151561169c57fe5b0434101515156116ab57600080fd5b8260000160009054906101000a900473ffffffffffffffffffffffffffffffffffffffff1673ffffffffffffffffffffffffffffffffffffffff163373ffffffffffffffffffffffffffffffffffffffff16141561170c57600093506118f5565b338160000160006101000a81548173ffffffffffffffffffffffffffffffffffffffff021916908373ffffffffffffffffffffffffffffffffffffffff16021790555060018160000160146101000a81548160ff021916908360ff160217905550868160020160006101000a81548160ff021916908360ff1602179055504281600101819055508181600301819055508260030180548060010182816117b291906119f5565b916000526020600020906004020160008390919091506000820160009054906101000a900473ffffffffffffffffffffffffffffffffffffffff168160000160006101000a81548173ffffffffffffffffffffffffffffffffffffffff021916908373ffffffffffffffffffffffffffffffffffffffff1602179055506000820160149054906101000a900460ff168160000160146101000a81548160ff021916908360ff160217905550600182015481600101556002820160009054906101000a900460ff168160020160006101000a81548160ff021916908360ff160217905550600382015481600301555050503373ffffffffffffffffffffffffffffffffffffffff167ffc70348d8477f82ecc5d62c79de0497e5a4e27c03bd15ede9caf84d98615f186896040518082815260200191505060405180910390a2600193505b505050949350505050565b60008060008060056000888152602001908152602001600020925060009150600090505b8260010180549050811015611977578581101580156119435750848111155b1561196a57826001018181548110151561195957fe5b906000526020600020900154820191505b8080600101915050611924565b8193505050509392505050565b8154818355818115116119ab578183600052602060002091820191016119aa9190611a27565b5b505050565b50805460008255906000526020600020908101906119ce9190611a27565b50565b50805460008255600402906000526020600020908101906119f29190611a4c565b50565b815481835581811511611a2257600402816004028360005260206000209182019101611a219190611a4c565b5b505050565b611a4991905b80821115611a45576000816000905550600101611a2d565b5090565b90565b611ac791905b80821115611ac357600080820160006101000a81549073ffffffffffffffffffffffffffffffffffffffff02191690556000820160146101000a81549060ff021916905560018201600090556002820160006101000a81549060ff0219169055600382016000905550600401611a52565b5090565b905600a165627a7a72305820800fef41cd05eedaa18c70508b9ec5dee06fdece555818d7057dea9fba5b61940029",
  "compiler": {
    "name": "solc",
    "version": "0.4.18+commit.9cf6e910.Emscripten.clang"
  },
  "schemaVersion": "1.0.1",
  "updatedAt": "2018-06-01T10:00:10.279Z"
}