{
  "contractName": "SMSVerifier",
  "abi": [
    {
      "constant": false,
      "inputs": [
        {
          "name": "phoneNumber",
          "type": "bytes32"
        },
        {
          "name": "operator",
          "type": "address"
        }
      ],
      "name": "initiateVerification",
      "outputs": [],
      "payable": false,
      "stateMutability": "nonpayable",
      "type": "function"
    },
    {
      "constant": true,
      "inputs": [],
      "name": "owner",
      "outputs": [
        {
          "name": "",
          "type": "address"
        }
      ],
      "payable": false,
      "stateMutability": "view",
      "type": "function"
    },
    {
      "constant": false,
      "inputs": [
        {
          "name": "newOwner",
          "type": "address"
        }
      ],
      "name": "transferOwnership",
      "outputs": [],
      "payable": false,
      "stateMutability": "nonpayable",
      "type": "function"
    },
    {
      "inputs": [
        {
          "name": "genesisRelay",
          "type": "address"
        }
      ],
      "payable": false,
      "stateMutability": "nonpayable",
      "type": "constructor"
    }
  ],
  "bytecode": "0x6060604052341561000f57600080fd5b60405160208061040183398101604052808051906020019091905050336000806101000a81548173ffffffffffffffffffffffffffffffffffffffff021916908373ffffffffffffffffffffffffffffffffffffffff1602179055506001808181805490500191508161008291906100e3565b50806001600081548110151561009457fe5b906000526020600020900160006101000a81548173ffffffffffffffffffffffffffffffffffffffff021916908373ffffffffffffffffffffffffffffffffffffffff16021790555050610134565b81548183558181151161010a57818360005260206000209182019101610109919061010f565b5b505050565b61013191905b8082111561012d576000816000905550600101610115565b5090565b90565b6102be806101436000396000f300606060405260043610610057576000357c0100000000000000000000000000000000000000000000000000000000900463ffffffff1680632c981efe1461005c5780638da5cb5b146100a2578063f2fde38b146100f7575b600080fd5b341561006757600080fd5b6100a060048080356000191690602001909190803573ffffffffffffffffffffffffffffffffffffffff16906020019091905050610130565b005b34156100ad57600080fd5b6100b5610141565b604051808273ffffffffffffffffffffffffffffffffffffffff1673ffffffffffffffffffffffffffffffffffffffff16815260200191505060405180910390f35b341561010257600080fd5b61012e600480803573ffffffffffffffffffffffffffffffffffffffff16906020019091905050610166565b005b600061013a610236565b9050505050565b6000809054906101000a900473ffffffffffffffffffffffffffffffffffffffff1681565b6000809054906101000a900473ffffffffffffffffffffffffffffffffffffffff1673ffffffffffffffffffffffffffffffffffffffff163373ffffffffffffffffffffffffffffffffffffffff16141561023357600073ffffffffffffffffffffffffffffffffffffffff168173ffffffffffffffffffffffffffffffffffffffff1614151561023257806000806101000a81548173ffffffffffffffffffffffffffffffffffffffff021916908373ffffffffffffffffffffffffffffffffffffffff1602179055505b5b50565b60008060018054905043406001900481151561024e57fe5b06905060018181548110151561026057fe5b906000526020600020900160009054906101000a900473ffffffffffffffffffffffffffffffffffffffff16915050905600a165627a7a723058201fb7bfc0c77bfdbd59f4d154a72e10b18708bf0fadcd19371e47d07b3d41ebe00029",
  "source": "pragma solidity ^0.4.4;\r\n\r\nimport \"../zeppelin/ownership/Ownable.sol\";\r\n\r\ncontract Relay {\r\n        function getNumSecrets() returns (uint) {}\r\n        function getLatestSecret(bool consume) returns (bytes32) {}\r\n}\r\n\r\n\r\ncontract SMSVerifier is Ownable {\r\n        address[] relays;\r\n\r\n        function SMSVerifier(address genesisRelay) {\r\n                relays.length += 1;\r\n                relays[0] = genesisRelay;\r\n        }\r\n\r\n        function getRandomRelay() internal returns (address) {\r\n                uint i = uint(block.blockhash(block.number)) % relays.length;\r\n                return relays[i];\r\n        }\r\n\r\n        struct Verification {\r\n                bytes32 phoneNumber;\r\n                address relay;\r\n                bytes32 relaySecret;\r\n                uint relayDeposit;\r\n        }\r\n        Verification[] verifications;\r\n\r\n        function initiateVerification(bytes32 phoneNumber, address operator) {\r\n                address relay = getRandomRelay();\r\n        }\r\n}",
  "sourcePath": "C:\\codes\\ethereum\\sergiy\\DjangoReactWebpack\\assets\\contracts\\phone-number\\Verification.sol",
  "compiler": {
    "name": "solc",
    "version": "0.4.18+commit.9cf6e910.Emscripten.clang"
  },
  "schemaVersion": "1.0.1",
  "updatedAt": "2018-05-17T20:00:26.929Z"
}